:2000000009C016C015C014C013C012C025C010C00FC00EC011241FBECFE9CDBF10E0A0E6D5
:20002000B0E001C01D92A536B107E1F741D0AFC0E7CF97B1907F97B997B1982B97B9369A4D
:200040003699FECF85B10895809164008F5909F480E28093640008951F920F920FB60F92A9
:2000600011242F933F938F939F9380916200909163002091600030916100820F931F9093D3
:200080006100809360002091640030E0892F99278217930710F482E001C080E088BB9F91C2
:2000A0008F913F912F910F900FBE0F901F90189582E087BB86B1866886B93D9A8FB5826024
:2000C0008FBD83B7826083BF89B7846089BF86B7816086BF78948AE2482E552453949AE1DE
:2000E000692E77247394CBEFD0E000EE10E027ECE22EF12C3CEBC32ED12C48EAA42EB12C49
:2001000056E9852E912C81E094DF8A3110F413BEFACF883328F4909263008092620030C043
:20012000863428F4B0926300A092620029C0823628F4D0926300C092620022C08A3728F4BB
:20014000F0926300E09262001BC0873928F4109363000093620014C0873B28F4D0936300BC
:20016000C09362000DC0893C28F4709263006092620006C0883E40F450926300409262002A
:1201800083B7826083BFBFCF13BE5EDFBCCFF894FFCF8E
:00000001FF
